:04000000E4EF2AF00F
:10549400120096908D90120095908C801200030E4D
:1054A4000001636F1200016E01B002D08C9001D034
:1054B4008C801200016E01B002D08D9001D08D80DD
:1054C4001200010E5CEC2AF00A0E0001636F120058
:1054D4006D966F86F19E8FEC2AF0D08EF28C1200BE
:1054E400A6B277EF2AF079EF2AF072EF2AF0010ED4
:1054F400120081A280EF2AF083EF2AF0010E84EFDC
:105504002AF0000E120081AA8AEF2AF08DEF2AF009
:10551400010E8EEF2AF0000E1200030ECA12870E3F
:10552400CA169C0ECB6E9F929D82CA8412005A505A
:10553400D8B49FEF2AF0A2EF2AF0010EA3EF2AF0CD
:10554400000E12005C50D8B4AAEF2AF0ADEF2AF096
:10555400010EAEEF2AF0000E1200086E020E016E6C
:1055640006C002F007C003F00850EFEC2BF0120065
:1055740081BCBFEF2AF0C2EF2AF0010EC3EF2AF07C
:10558400000E0001616F120099EC2AF00009D8A402
:10559400CEEF2AF0D0EF2AF0D3EF2AF0070E000165
:1055A400636F1200000E55EC2AF0010E026EF40E29
:1055B400016E78EC2CF0010E55EC2AF0030E00017C
:1055C400636F120000EE60F0250EEE6AE806FDE15E
:1055D4005D6A5C6A5B6A5A6A596A000EF86E000179
:1055E400C2EF35F0A4EC2AF00009D8A4FCEF2AF0AD
:1055F400FEEF2AF004EF2BF0010E55EC2AF0010E19
:105604000001636F120034EC31F00009D8A40DEFEF
:105614002BF00FEF2BF015EF2BF00B0E0001636F47
:10562400000E5CEC2AF01200000E0A6E000E026EF0
:10563400920E016E17EC2FF00A2A130E0A6425EF5E
:105644002BF027EF2BF018EF2BF01200000E0A6E50
:10565400000E026E920E016E17EC2FF00A2A630EF2
:105664000A6437EF2BF039EF2BF02AEF2BF01200FE
:1056740015EC2DF0000E55EC2AF0070E026ED00E3C
:10568400016E78EC2CF0010E55EC2AF0060E0001A8
:10569400636F12000E6E0CC00FF00DC010F0020EFE
:1056A400046E0F0E056E000E066E000E086E010EDF
:1056B400076E0E5070EC2DF0120092809282C19809
:1056C400C19AC198C19AC150F00B0D09C16EC05066
:1056D400F80B0509C06EC050C70B1009C06EC08E10
:1056E400C2801200016E01B002D08D9201D08D8271
:1056F40001B002D08C9601D08C8601B002D08B947C
:1057040001D08B8401B002D08B9201D08B82120025
:1057140000016051D8B491EF2BF093EF2BF09FEF81
:105724002BF06151D8B499EF2BF09CEF2BF0010EC4
:105734009DEF2BF0000EA0EF2BF0000E1200C284A0
:10574400C296C298C29A000E026E160E016E17EC33
:105754002FF0C282C2B2B1EF2BF0B3EF2BF0ACEF5B
:105764002BF0C450030B0C6EC3500A6E0CC00BF02C
:105774001200C294C296C298C29A000E026E0C0E17
:10578400016E17EC2FF0C282C2B2CBEF2BF0CDEF3B
:105794002BF0C6EF2BF0C450030B0C6EC3500A6EF3
:1057A4000CC00BF01200026E02C0A9FF01C0A8FFDA
:1057B400A69CA69EA684000EF2BE010E036EF29E67
:1057C400550EA76EAA0EA76EA68203B002D0F29E53
:1057D40001D0F28EA694A6921200046E000E056EFD
:1057E40005EF2CF004500524A96EA69CA69EA68065
:1057F40000F000F005500224D96E000E0320DA6E8A
:10580400A8CFDFFF052A0150055CD8A00CEF2CF0CF
:105814000EEF2CF0F4EF2BF01200DAEC2DF000096F
:10582400D8B417EF2CF019EF2CF030EF2CF099ECE2
:105834002AF00009D8A421EF2CF023EF2CF030EF4C
:105844002CF0A4EC2AF00009D8A42BEF2CF02DEFB7
:105854002CF030EF2CF0040E0001636F1200000EE8
:10586400151A000E161A000E171A800E181A11C0F7
:1058740001F012C002F013C003F014C004F015C00C
:1058840005F016C006F017C007F018C008F0DBECEE
:105894003AF001C011F002C012F003C013F004C0CA
:1058A40014F012009692959694949492929A8D8202
:1058B4008C868B848B82898A9288938C000E00015B
:1058C400626F81BC68EF2CF06BEF2CF0010E6CEF73
:1058D4002CF0000E616F81BC72EF2CF075EF2CF090
:1058E400010E76EF2CF0000E606F1200000E046EB5
:1058F400000E036E91EF2CF0000E066E000E056E86
:10590400054A062A065009E1E00E055CD8A08DEF91
:105914002CF08FEF2CF082EF2CF0034A042A015074
:10592400035C02500458D8A09AEF2CF09CEF2CF0A2
:105934007EEF2CF012009598959A959C959E9594DF
:105944009592000E016E000E15EC2EF0000E016E05
:10595400010E15EC2EF0010E016E000E95EC2EF0EA
:10596400010E016E010E95EC2EF0000E016E000E7C
:10597400D6EC2EF0000E016E010ED6EC2EF01200C5
:10598400010E74EC2BF016EC2BF0000E74EC2BF0E3
:1059940016EC2BF0010E74EC2BF016EC2BF0000E31
:1059A40074EC2BF016EC2BF0010E74EC2BF016ECCF
:1059B4002BF0000E74EC2BF028EC2BF0010E74ECA1
:1059C4002BF028EC2BF028EC2BF028EC2BF0120019
:1059D4009384000E5D6E81B4F2EF2CF0F5EF2CF0A1
:1059E400010EF6EF2CF0000E5C6E9380000E0001A9
:1059F400646F81B000EF2DF003EF2DF0010E04EF82
:105A04002DF0000E596E9382938A938E81BE0DEF12
:105A14002DF010EF2DF0010E11EF2DF0000E5A6E47
:105A2400000E5B6E1200000E74EC2BF016EC2BF0E3
:105A3400010E74EC2BF016EC2BF0000E74EC2BF032
:105A440016EC2BF0010E74EC2BF016EC2BF0000E80
:105A540074EC2BF028EC2BF0010E74EC2BF028ECFA
:105A64002BF0000E74EC2BF028EC2BF0010E74ECF0
:105A74002BF028EC2BF028EC2BF028EC2BF0120068
:105A8400000E55EC2AF0A4EC2AF00009D8A44DEF3E
:105A94002DF04FEF2DF06FEF2DF0010E55EC2AF0A5
:105AA400DAEC2DF00009D8B45AEF2DF05CEF2DF0AC
:105AB4006FEF2DF067C06FF068C070F067C06DF0D5
:105AC40068C06EF077C07FF078C080F077C07DF05A
:105AD40078C07EF00D0E0001636F1200096E010E96
:105AE4000A6E000E0B6E95EF2DF007C001F008C092
:105AF40002F072EC2AF00A6E0A50D8A484EF2DF05A
:105B040086EF2DF088EF2DF09EEF2DF00B5005243D
:105B1400D96E000E0620DA6EDF50016E09500B2498
:105B2400D5EC2BF00B2A04500B5CD8A09CEF2DF085
:105B34009EEF2DF077EF2DF00A501200000E066E46
:105B4400000E056E03500410D8B4ABEF2DF0ADEF8A
:105B54002DF0D5EF2DF0010E076EB5EF2DF0D89096
:105B640003360436072A04AEBAEF2DF0BCEF2DF04D
:105B7400B1EF2DF0D890053606360350015C045081
:105B84000258D8A0C8EF2DF0CAEF2DF0CFEF2DF0BA
:105B94000350015E0450025A0580D8900432033247
:105BA400072EBCEF2DF005C001F006C002F0120074
:105BB400180E0E6E000E0F6E1A0E106E000E116E81
:105BC4005AEC2FF0420E185C020E1958D8B0EDEFC3
:105BD4002DF0EFEF2DF013EF2EF0C30E185C010E35
:105BE4001958D8A0F8EF2DF0FAEF2DF013EF2EF09E
:105BF400420E1A5C020E1B58D8B003EF2EF005EFCC
:105C04002EF013EF2EF0C30E1A5C010E1B58D8A011
:105C14000EEF2EF010EF2EF013EF2EF0010E14EF16
:105C24002EF0000E1200046E3FEF2EF00150D8B497
:105C34001EEF2EF022EF2EF0026A022A23EF2EF03E
:105C4400026A023A8C500218EF0B02188C6E54EF61
:105C54002EF00150D8B431EF2EF035EF2EF0026A59
:105C6400022A36EF2EF0026A023202328C500218F7
:105C74007F0B02188C6E54EF2EF00450026E036AF0
:105C84000350000AD8B449EF2EF054EF2EF002501E
:105C9400000AD8B418EF2EF0010AD8B42BEF2EF076
:105CA40054EF2EF01200DAEC2DF00009D8B45DEFB9
:105CB4002EF05FEF2EF094EF2EF01C0E0E6E000E01
:105CC4000F6E1E0E106E000E116E5AEC2FF01CC0DB
:105CD40065F01DC066F01CC067F01DC068F0C00E02
:105CE4001C240001696FFF0E1D206A6F400E1C24E6
:105CF4006B6F000E1D206C6F1EC075F01FC076F018
:105D04001EC077F01FC078F0C00E1E24796FFF0EFE
:105D14001F207A6F400E1E247B6F000E1F207C6FA5
:105D2400030E636F1200046EC0EF2EF00150D8A46E
:105D34009EEF2EF0A2EF2EF0026A022AA3EF2EF0BD
:105D4400026A023A024602468C500218BF0B02183D
:105D54008C6ED5EF2EF00150D8A4B3EF2EF0B7EF30
:105D64002EF0026A022AB8EF2EF0026A02468C5024
:105D74000218FD0B02188C6ED5EF2EF00450026E43
:105D8400036A0350000AD8B4CAEF2EF0D5EF2EF000
:105D94000250000AD8B498EF2EF0010AD8B4ADEF3F
:105DA4002EF0D5EF2EF01200046E01EF2FF001500B
:105DB400D8A4DFEF2EF0E3EF2EF0026A022AE4EF1C
:105DC4002EF0026A023A02468C500218DF0B0218C7
:105DD4008C6E16EF2FF00150D8A4F3EF2EF0F7EFEE
:105DE4002EF0026A022AF8EF2EF0026A02460246F8
:105DF4008C500218FB0B02188C6E16EF2FF0045017
:105E0400026E036A0350000AD8B40BEF2FF016EFAA
:105E14002FF00250000AD8B4D9EF2EF0010AD8B4FA
:105E2400EDEF2EF016EF2FF0120001500210D8A45F
:105E34001EEF2FF020EF2FF022EF2FF059EF2FF06D
:105E44000204D8B028EF2FF02AEF2FF03AEF2FF00A
:105E5400000E096E2FEF2FF0092A0150095CD8A01B
:105E640036EF2FF038EF2FF02EEF2FF059EF2FF001
:105E7400000E086E000E076E42EF2FF0074A082A44
:105E8400E00E036EFF0E046E01C005F002C006F0C2
:105E940003500526045006220550075C0650085896
:105EA400D8A057EF2FF059EF2FF040EF2FF012004A
:105EB400000E136E000E126E000E156E000E146EA0
:105EC400000E176E000E166E000E026E020E016EAC
:105ED40017EC2FF0BBEC2BF00A5012260B501322B8
:105EE400A1EC2BF00A5014260B501522164A172A3F
:105EF40017BE86EF2FF0175009E10A0E165CD8A0E2
:105F040086EF2FF088EF2FF066EF2FF012C001F02C
:105F140013C002F0000E046E0A0E036EA0EC2DF006
:105F24000EC0D9FF0FC0DAFF01C0DEFF02C0DDFFE3
:105F340014C001F015C002F0000E046E0A0E036EC8
:105F4400A0EC2DF010C0D9FF11C0DAFF01C0DEFFB4
:105F540002C0DDFF1200046EDAEF2FF001B002D0B0
:105F64008C9601D08C86FFEF2FF001B002D08B9479
:105F740001D08B84FFEF2FF001B002D08D9201D0BD
:105F84008D82FFEF2FF001B002D08B9201D08B8273
:105F9400FFEF2FF001B002D0899A01D0898AFFEF78
:105FA4002FF001B002D0899801D08988FFEF2FF03B
:105FB4000450026E036A0350000AD8B4E4EF2FF0D1
:105FC400FFEF2FF00250010AD8B4B0EF2FF0030A0C
:105FD400D8B4B7EF2FF0010AD8B4BEEF2FF0070AF8
:105FE400D8B4C5EF2FF0010AD8B4D3EF2FF0030AC9
:105FF400D8B4CCEF2FF0FFEF2FF012000DC011F04A
:106004000EC012F0A50E115C060E1258D8A00DEFAA
:1060140030F00FEF30F013EF30F0060E126EA40ED6
:10602400116E080E115C020E1258D8B01CEF30F03D
:106034001EEF30F022EF30F0020E126E080E116ED9
:106044000FC013F010C014F0A50E135C060E145804
:10605400D8A02FEF30F031EF30F035EF30F0060EEE
:10606400146EA40E136E080E135C020E1458D8B0EE
:106074003EEF30F040EF30F044EF30F0020E146E9B
:10608400080E136E11C005F012C006F0000E53EC9A
:1060940030F013C005F014C006F0010E53EC30F0DC
:1060A40012000C6E000E016E0C5095EC2EF0000EDA
:1060B4000B6E000E0A6E0A500B08076E010E086E76
:1060C400000E096E072A6AEF30F0D89008360936B8
:1060D400072E67EF30F005500816065009160850D1
:1060E4000910D8A478EF30F07BEF30F0010E7CEF8C
:1060F40030F0000E016E0C50D6EC2EF0010E016E45
:106104000C5095EC2EF00B0E0A180B10D8A48DEF42
:1061140030F08FEF30F094EF30F0010E016E0C5040
:1061240015EC2EF0000E016E0C5095EC2EF00A4A80
:106134000B2A0B5009E10C0E0A5CD8A0A4EF30F036
:10614400A6EF30F05DEF30F0000E016E0C5015EC50
:106154002EF0010E016E0C5095EC2EF0120003345B
:1061640004340A6E0A50D8A4BAEF30F0BCEF30F011
:10617400C6EF30F0000E016E000E026E000E036ECC
:10618400000E046E33EF31F001C005F002C006F0DA
:1061940003C007F004C008F0200ED6EF30F0D8900A
:1061A4000832073206320532E82ED1EF30F00550BE
:1061B400096E038EFF0E0116FF0E0216FF0E031664
:1061C400000E0416960E0A5E0ABEEDEF30F0EBEFF9
:1061D40030F003EF31F00A50800A970FD8B0F5EF92
:1061E40030F0F7EF30F0F9EF30F0BCEF30F0D8904A
:1061F40004320332023201320A3EF9EF30F01BEF6F
:1062040031F01F0E0A6409EF31F00BEF31F013EF98
:1062140031F0BCEF30F0D890013602360336043644
:106224000A060A50D8A419EF31F01BEF31F00DEF34
:1062340031F00950D8B421EF31F023EF31F02BEFD6
:1062440031F0041E031E021E016C000E0222032202
:10625400042201C001F002C002F003C003F004C034
:1062640004F01200000E1E6E7BEC2AF00009D8B474
:106274003EEF31F040EF31F0AFEF31F0210E0E6E12
:10628400000E0F6E1F0E106E000E116E5AEC2FF0E2
:10629400800E186EFF0E196E20EE77F0DECF1AF026
:1062A400DDCF1BF018501A2619501B221F501A5C00
:1062B40020501B58D8B061EF31F063EF31F0AFEFED
:1062C40031F0800E00017725186E000E7821196ECA
:1062D40018501F5C19502058D8B073EF31F075EF87
:1062E40031F0AFEF31F06951215C6A512258D8B0D6
:1062F4007EEF31F080EF31F0AFEF31F07351675D35
:10630400186E74516859196E1850215C195022582E
:10631400D8B08FEF31F091EF31F097EF31F0735146
:10632400675D216E74516859226E2150675D1C6E41
:10633400225068591D6ED8907431196E7331186EDD
:106344001C50185C1D501958D8B0ABEF31F0ADEFAC
:1063540031F0AFEF31F0010E1E6E1E50D8B4B5EF20
:1063640031F0B7EF31F0BAEF31F0010EC4EF31F094
:106374005950D8B4C0EF31F0C3EF31F0010EC4EF7F
:1063840031F0000E120081B4CAEF31F0CDEF31F0DC
:10639400010ECEEF31F0000E5C18D8A4D4EF31F02A
:1063A400D6EF31F0DAEF31F0000E5D6EEFEF31F041
:1063B4005D2A080E5D64E1EF31F0E3EF31F0EFEFB9
:1063C40031F081B4E8EF31F0EBEF31F0010EECEF96
:1063D40031F0000E5C6E000E5D6E85EC2AF0000953
:1063E400D8A4F7EF31F0F9EF31F027EF32F081B0B4
:1063F400FEEF31F001EF32F0010E02EF32F0000E49
:106404005918D8A408EF32F00AEF32F00FEF32F047
:10641400000E0001646F29EF32F00001642B080EB6
:10642400646517EF32F019EF32F029EF32F081B0E2
:106434001EEF32F021EF32F0010E22EF32F0000EA7
:10644400596E000E646F29EF32F0010E596E81BE51
:106454002EEF32F031EF32F0010E32EF32F0000E57
:106464005A18D8A438EF32F03AEF32F03EEF32F057
:10647400000E5B6E53EF32F05B2A080E5B6445EF4F
:1064840032F047EF32F053EF32F081BE4CEF32F08E
:106494004FEF32F0010E50EF32F0000E5A6E000E44
:1064A4005B6EBAEC2AF0120099EC2AF00009D8B419
:1064B4005EEF32F060EF32F065EF32F0C2EC2CF0B8
:1064C400020E0001636F8AEC2BF00009D8B46DEF63
:1064D40032F06FEF32F076EF32F0000E016E060EFE
:1064E400ADEC2FF07BEF32F0010E016E060EADEC39
:1064F4002FF01C0E0E6E000E0F6E1E0E106E000E90
:10650400116E5AEC2FF0D89000017231196E71316E
:10651400186E67511826685119221C50185C1D50BA
:106524001958D8B098EF32F09AEF32F0A1EF32F068
:10653400000E016E010EADEC2FF0A6EF32F0010E4D
:10654400016E010EADEC2FF0D89000017431196E7C
:106554007331186E20EE67F0DECF1AF0DDCF1BF03A
:1065640018501A5E19501B5A1A501C5C1B501D58A7
:10657400D8B0BFEF32F0C1EF32F0C8EF32F0000E06
:10658400016E020EADEC2FF0CDEF32F0010E016E74
:10659400020EADEC2FF0D89000018231196E8131DA
:1065A400186E77511826785119221E50185C1F5006
:1065B4001958D8B0E0EF32F0E2EF32F0E9EF32F000
:1065C400000E016E040EADEC2FF0EEEF32F0010E72
:1065D400016E040EADEC2FF0D89000018431196ED9
:1065E4008331186E20EE77F0DECF1AF0DDCF1BF08A
:1065F40018501A5E19501B5A1A501E5C1B501F5813
:10660400D8B007EF33F009EF33F010EF33F0000E9A
:10661400016E030EADEC2FF015EF33F0010E016E99
:10662400030EADEC2FF01200180E0E6E000E0F6E5E
:106634001A0E106E000E116E5AEC2FF01850000155
:106644006F5D19507059D8B02AEF33F02CEF33F046
:1066540030EF33F018C06FF019C070F06D51185C52
:106664006E511958D8B039EF33F03BEF33F03FEFA8
:1066740033F018C06DF019C06EF01A507F5D1B50D6
:106684008059D8B048EF33F04AEF33F04EEF33F08F
:106694001AC07FF01BC080F07D511A5C7E511B58DC
:1066A400D8B057EF33F059EF33F05DEF33F01AC041
:1066B4007DF01BC07EF0A4EC2AF00009D8B465EF8D
:1066C40033F067EF33F0ECEF33F0000167516F5DA7
:1066D400716F68517059726F725109E1DD0E715D0D
:1066E400D8A077EF33F079EF33F07DEF33F0000E7D
:1066F400726FDC0E716F6D51675D736F6E51685907
:10670400746F745109E1DD0E735DD8A08CEF33F022
:106714008EEF33F092EF33F0000E746FDC0E736F74
:1067240077517F5D816F78518059826F825109E181
:10673400DD0E815DD8A0A1EF33F0A3EF33F0A7EF16
:1067440033F0000E826FDC0E816F7D51775D836FB5
:106754007E517859846F845109E1DD0E835DD8A0A0
:10676400B6EF33F0B8EF33F0BCEF33F0000E846FC4
:10677400DC0E836F73C00CF074C00DF0000E4CEC93
:106784002BF071C00CF072C00DF0020E4CEC2BF02B
:1067940083C00CF084C00DF0040E4CEC2BF081C0CF
:1067A4000CF082C00DF0060E4CEC2BF0DE0E0D6EDC
:1067B400AD0E0C6E080E4CEC2BF0AA0E0D6E550EA1
:1067C4000C6E0A0E4CEC2BF0000E55EC2AF00E0E5B
:1067D4000001636F1200096E0950D8B4F4EF33F06E
:1067E400F6EF33F018EF34F004BEFDEF33F0FBEFB7
:1067F40033F018EF34F001C005F002C006F003C016
:1068040007F004C008F0051E061E071E081E052A10
:10681400000E06220722082205C00BF006C00CF069
:1068240007C00DF008C00EF020EF34F001C00BF0EB
:1068340002C00CF003C00DF004C00EF001500210B1
:1068440003100410D8A429EF34F02BEF34F035EF03
:1068540034F0000E016E000E026E000E036E000E88
:10686400046EC6EF34F0960E0A6E3FEF34F00A2A37
:10687400D8900E320D320C320B32000E0B14056E12
:10688400000E0C14066E000E0D14076EFE0E0E1490
:10689400086E0550061007100810D8A454EF34F001
:1068A40056EF34F039EF34F064EF34F00A2A010E75
:1068B4000B26000E0C220D220E22D8900E320D3221
:1068C4000C320B32000E0B14056E000E0C14066E07
:1068D400000E0D14076EFF0E0E14086E0550061000
:1068E40007100810D8A479EF34F07BEF34F058EF98
:1068F40034F083EF34F00A06D8900B360C360D369C
:106904000E360DBE88EF34F08AEF34F092EF34F097
:10691400020E0A6090EF34F092EF34F07DEF34F021
:106924000AB097EF34F099EF34F09AEF34F00D9EFB
:10693400D8900A320AC005F0066A076A086A05C0D8
:1069440008F0076A066A056A05500B1206500C1215
:1069540007500D1208500E120950D8B4B4EF34F099
:10696400B6EF34F0BEEF34F004BEBDEF34F0BBEF4D
:1069740034F0BEEF34F00E8E0BC001F00CC002F008
:106984000DC003F00EC004F01200010E0D6E020ED5
:106994000001666F020E656F020E686F020E676F6C
:1069A400010E6A6FC20E696F020E6C6F420E6B6F3E
:1069B400010E6E6F260E6D6F020E706FDE0E6F6F1E
:1069C400000E726FDC0E716F000E746FDC0E736F4D
:1069D400020E766F020E756F020E786F020E776FDD
:1069E400010E7A6FC20E796F020E7C6F420E7B6FBE
:1069F400010E7E6F260E7D6F020E806FDE0E7F6F9E
:106A0400000E826FDC0E816F000E846FDC0E836FCC
:106A1400090E066E000E076E080EAFEC2AF00B0E80
:106A2400066E000E076E0A0EAFEC2AF0AD0E0918C2
:106A340007E1DE0E0A18D8A422EF35F024EF35F072
:106A440030EF35F0550E0B1809E1AA0E0C18D8B426
:106A54002EEF35F030EF35F033EF35F0000EC1EFA7
:106A640035F0730E066E000E076E000EAFEC2AF0C2
:106A7400710E066E000E076E020EAFEC2AF0830E46
:106A8400066E000E076E040EAFEC2AF0810E066E41
:106A9400000E076E060EAFEC2AF00001725107E1FA
:106AA400DD0E715DD8B059EF35F05BEF35F066EF70
:106AB40035F0725107E11B0E715DD8B064EF35F00B
:106AC40066EF35F06CEF35F0000E0D6E000E726F50
:106AD400DC0E716F745107E1DD0E735DD8B075EF94
:106AE40035F077EF35F082EF35F0745107E11B0E86
:106AF400735DD8B080EF35F082EF35F088EF35F074
:106B0400000E0D6E000E746FDC0E736F825107E180
:106B1400DD0E815DD8B091EF35F093EF35F09EEF47
:106B240035F0825107E11B0E815DD8B09CEF35F042
:106B34009EEF35F0A4EF35F0000E0D6E000E826F5F
:106B4400DC0E816F845107E1DD0E835DD8B0ADEFBB
:106B540035F0AFEF35F0BAEF35F0845107E11B0E95
:106B6400835DD8B0B8EF35F0BAEF35F0C0EF35F04B
:106B7400000E0D6E000E846FDC0E836F0D5012003C
:106B84006F866AEC2AF04EEC2AF04BEC2AF09DEC6E
:106B94002CF04AEC2AF054EC2CF05FEC2BF0EAECED
:106BA4002CF0040E066E540E056E000E53EC30F0FD
:106BB400040E066E540E056E010E53EC30F0000EFA
:106BC400586E000E576E000E026E920E016E17EC98
:106BD4002FF0574A582A58BEF9EF35F0D00E575CBB
:106BE400070E5858D8A0F9EF35F0FBEF35F0E5EF74
:106BF40035F0C7EC34F0566E5650D8A404EF36F096
:106C040006EF36F042EF36F0000E55EC2AF0000E97
:106C1400586E000E576EC5EC31F0000E026E920EE7
:106C2400016E17EC2FF0574A582A58BE23EF36F05E
:106C3400585009E1960E575CD8A023EF36F025EFA3
:106C440036F00DEF36F0010E55EC2AF0000E586EBA
:106C5400000E576E000E026E920E016E17EC2FF0AE
:106C6400574A582A58BE40EF36F0585009E1960E5C
:106C7400575CD8A040EF36F042EF36F02CEF36F0F8
:106C8400000E55EC2AF0000E586E000E576EC5EC3F
:106C940031F0000E026E920E016E17EC2FF0574A7F
:106CA400582A58BE5FEF36F0585009E1960E575CEB
:106CB400D8A05FEF36F061EF36F049EF36F0010E01
:106CC40055EC2AF0040E066E540E056E000E53ECBD
:106CD40030F0040E066E540E056E010E53EC30F0C7
:106CE400010E0001636FC5EC31F0ADEF36F055ECE9
:106CF4002EF0EFEF36F0D4EC2AF0EFEF36F00FEC95
:106D04002CF0EFEF36F03BEC3DF0EFEF36F03AECE1
:106D14002BF0EFEF36F0C6EC2AF0EFEF36F056EC3E
:106D240032F0EFEF36F063EC2AF0EFEF36F005ECDB
:106D34002BF0EFEF36F051EC2AF0EFEF36F042ECA7
:106D44002DF0EFEF36F016EC33F0EFEF36F0F4EC15
:106D54002AF0EFEF36F000016351546E556A555036
:106D6400000AD8B4B8EF36F0EFEF36F05450010A09
:106D7400D8B479EF36F0030AD8B47DEF36F0010ABF
:106D8400D8B481EF36F0070AD8B485EF36F0010A9B
:106D9400D8B489EF36F0030AD8B48DEF36F0010A7F
:106DA400D8B491EF36F00E0AD8B495EF36F0030A52
:106DB400D8B499EF36F0010AD8B49DEF36F0070A3B
:106DC400D8B4A1EF36F0010AD8B4A5EF36F0030A1F
:106DD400D8B4A9EF36F0EFEF36F0000E026E350EA0
:106DE400016E17EC2FF075EF36F000EF00F0125043
:106DF400800B1F6E12501224266E11AE04EF37F072
:106E040006EF37F007EF37F026802650D8B40DEFA1
:106E140037F00FEF37F024EF37F02628D8A415EF1A
:106E240037F017EF37F01FEF37F0000E0F6E000E3C
:106E3400106E000E116E000E126E118E000E126E88
:106E44002CEF37F0000E0F6E000E106E000E116E58
:106E5400000E126E1650800B1F1A16501624276E41
:106E640015AE37EF37F039EF37F03AEF37F02780C8
:106E74002750D8B440EF37F042EF37F057EF37F0F0
:106E84002728D8A448EF37F04AEF37F052EF37F00D
:106E9400000E136E000E146E000E156E000E166EAC
:106EA400158E000E166E5FEF37F0000E136E000E97
:106EB400146E000E156E000E166E1350141015107D
:106EC4001610D8A468EF37F06AEF37F082EF37F086
:106ED400000E0F6E000E106E000E116E000E126E7C
:106EE400800E11127F0E12121F5012120FC00FF0DB
:106EF40010C010F011C011F012C012F0C5EF38F03C
:106F04002650D8A488EF37F08AEF37F094EF37F0A3
:106F1400000E0F6E000E106E000E116E000E126E3B
:106F2400C5EF38F0275026C017F0186A175E000E18
:106F3400185A7F0E1724206E000E1820216E0FC0E1
:106F44001BF010C01CF011C01DF012C01EF0000E8A
:106F54000F6E000E106E000E116E000E126E000EFB
:106F6400226E000E236E000E246E000E256E000E9F
:106F7400276EF5EF37F02750D8B4C3EF37F0C5EFDD
:106F840037F0DCEF37F0D8901B361C361D361E3632
:106F9400D8900F3610361136123625AED4EF37F0AE
:106FA400D6EF37F0D7EF37F00F80D890223623365C
:106FB4002436253613501B5C14501C5815501D588C
:106FC40016501E58D8A0E9EF37F0EBEF37F0F4EF86
:106FD40037F0258C13501B5E14501C5A15501D5A43
:106FE40016501E5A272A190E2764FBEF37F0FDEFBF
:106FF40037F0BDEF37F01B501C101D101E10D8B415
:1070040006EF38F008EF38F020EF38F0228020EF58
:1070140038F0D8900F3610361136123625AE15EFEB
:1070240038F017EF38F018EF38F00F80D890223688
:107034002336243625362006D8A0210611AE25EFA6
:1070440038F027EF38F00BEF38F0000E276E25AE3E
:107054002EEF38F030EF38F054EF38F0FF0E2214F2
:10706400176EFF0E2314186EFF0E2414196E7F0E74
:1070740025141A6E1750181019101A10D8B445EFA9
:1070840038F047EF38F04BEF38F0010E276E54EF2D
:1070940038F00FA050EF38F052EF38F054EF38F0DA
:1070A40047EF38F02750D8B45AEF38F05CEF38F097
:1070B40080EF38F0010E0F26000E1022112212224A
:1070C40012A067EF38F069EF38F080EF38F00FC0A6
:1070D40017F010C018F011C019F012C01AF01A34C9
:1070E4001A3219321832173217C00FF018C010F0C4
:1070F40019C011F01AC012F0204A212A21BE8BEFC8
:1071040038F0215008E12028D8A08BEF38F08DEF1B
:1071140038F098EF38F0000E216E2068000E0F6EE4
:10712400000E106E000E116E000E126E21BEA5EF41
:1071340038F0215006E12004D8B0A3EF38F0A5EFD1
:1071440038F0B3EF38F0000E216E000E206E000E02
:107154000F6E000E106E000E116E000E126E000EF9
:107164001F6E20C026F026A0BAEF38F0BCEF38F02E
:10717400BFEF38F0118EC0EF38F0119ED890263052
:10718400126E76EF37F012002B50800B346E2B50BA
:107194002B243A6E2AAED1EF38F0D3EF38F0D4EF87
:1071A40038F03A803A50D8B4DAEF38F0DCEF38F0FF
:1071B400EFEF38F03A28D8A4E2EF38F0E4EF38F0F3
:1071C400ECEF38F0000E286E000E296E000E2A6EC9
:1071D400000E2B6E2A8EF7EF38F0000E286E000E8C
:1071E400296E000E2A6E000E2B6E2F50800B341A5F
:1071F4002F502F24396E2EAE02EF39F004EF39F000
:1072040005EF39F039803950D8B40BEF39F00DEF70
:1072140039F020EF39F03928D8A413EF39F015EFFD
:1072240039F01DEF39F0000E2C6E000E2D6E000E9D
:107234002E6E000E2F6E2E8E28EF39F0000E2C6E5F
:10724400000E2D6E000E2E6E000E2F6E3950D8B427
:107254002EEF39F030EF39F038EF39F03A50D8A446
:1072640036EF39F038EF39F042EF39F0000E286E7E
:10727400000E296E000E2A6E000E2B6EDAEF3AF025
:107284002E502802F3CF3FF0F4CF40F03F50356E3C
:10729400366A376A386A40503B6E3C6A3D6A3E6AD9
:1072A4002D502902F3CF3FF0F4CF40F03F50352664
:1072B400000E36223722382240503B26000E3C2254
:1072C4003D223E222C502A02F3CF3FF0F4CF40F06F
:1072D4003F503526000E36223722382240503B26B6
:1072E400000E3C223D223E2237C038F036C037F033
:1072F40035C036F0356A2C502902F3CF3FF0F4CF75
:1073040040F03F50352640503622000E3722000E02
:1073140038222D502802F3CF3FF0F4CF40F03F50F5
:10732400352640503622000E3722000E382237C050
:1073340038F036C037F035C036F0356A2C502802A4
:10734400F3CF3FF0F4CF40F03F5035264050362283
:10735400000E3722000E38222E502902F3CF3FF0C0
:10736400F4CF40F03F503B2640503C22000E3D22DB
:10737400000E3E222D502A02F3CF3FF0F4CF40F00E
:107384003F503B2640503C22000E3D22000E3E2240
:107394002E502A02F3CF3FF0F4CF40F03F50306E2E
:1073A4004050316E326A336A32C033F031C032F049
:1073B40030C031F0306A30503B2631503C223250DC
:1073C4003D2233503E2235C030F036C031F037C054
:1073D40032F038C033F0190EF5EF39F0D89033326B
:1073E400323231323032E82EF0EF39F030503B2671
:1073F40031503C2232503D2233503E2237C038F0C7
:1074040036C037F035C036F0356A39503AC030F0FE
:10741400316A3026000E3122820E30243F6EFF0E78
:107424003120406E2BEF3AF0D8903B363C363D3657
:107434003E3638AE20EF3AF022EF3AF023EF3AF03E
:107444003B80D89035363636373638363F06D8A0A6
:1074540040063DAE30EF3AF032EF3AF016EF3AF034
:10746400000E396E38AE39EF3AF03BEF3AF05FEF89
:107474003AF0FF0E3514306EFF0E3614316EFF0EE7
:107484003714326E7F0E3814336E30503110321090
:107494003310D8B450EF3AF052EF3AF056EF3AF0D6
:1074A400010E396E5FEF3AF03BA05BEF3AF05DEF0F
:1074B4003AF05FEF3AF052EF3AF03950D8B465EF52
:1074C4003AF067EF3AF08BEF3AF0010E3B26000EEC
:1074D4003C223D223E223EA072EF3AF074EF3AF095
:1074E4008BEF3AF03BC030F03CC031F03DC032F09D
:1074F4003EC033F03334333232323132303230C082
:107504003BF031C03CF032C03DF033C03EF03F4A66
:10751400402A40BE96EF3AF0405008E13F28D8A0F8
:1075240096EF3AF098EF3AF0A2EF3AF0000E3B6E85
:10753400000E3C6E800E3D6E7F0E3E6ED0EF3AF034
:1075440040BEAFEF3AF0405006E13F04D8B0ADEF93
:107554003AF0AFEF3AF0BBEF3AF0000E3B6E000E9C
:107564003C6E000E3D6E000E3E6E000E346ED0EF8B
:107574003AF03FC03AF0FF0E3B16FF0E3C167F0E6A
:107584003D16000E3E163AA0CAEF3AF0CCEF3AF0A0
:10759400CDEF3AF03D8ED8903A303E6E34503E12E4
:1075A4003BC028F03CC029F03DC02AF03EC02BF07F
:1075B40012000450800B0D6E045004240F6E03AEB1
:1075C400E6EF3AF0E8EF3AF0E9EF3AF00F800F50C7
:1075D400D8B4EFEF3AF0F1EF3AF006EF3BF00F28B2
:1075E400D8A4F7EF3AF0F9EF3AF001EF3BF0000ED0
:1075F400016E000E026E000E036E000E046E038E0A
:10760400000E046E0EEF3BF0000E016E000E026ED3
:10761400000E036E000E046E0850800B0E6E0D50AB
:107624000E18D8B418EF3BF01AEF3BF01BEF3BF009
:107634000D8C085008240E6E07AE23EF3BF025EFA7
:107644003BF026EF3BF00E800E50D8B42CEF3BF00D
:107654002EEF3BF043EF3BF00E28D8A434EF3BF081
:1076640036EF3BF03EEF3BF0000E056E000E066E6B
:10767400000E076E000E086E078E000E086E4BEFAC
:107684003BF0000E056E000E066E000E076E000E37
:10769400086E0F500E5CD8B052EF3BF054EF3BF045
:1076A4007BEF3BF00DAC59EF3BF05BEF3BF05DEF54
:1076B4003BF0800E0D1A0FC010F00EC00FF010C07A
:1076C4000EF001C010F005C001F010C005F002C0BA
:1076D40010F006C002F010C006F003C010F007C09E
:1076E40003F010C007F004C010F008C004F010C08C
:1076F40008F0000E106E0F500EC009F00A6A095E01
:10770400000E0A5A0ABE90EF3BF00A5009E11A0E25
:10771400095CD8A090EF3BF092EF3BF0C9EF3BF04F
:107724000150021003100410D8A49BEF3BF09EEF0D
:107734003BF0010E9FEF3BF0000E106E000E016E49
:10774400000E026E000E036E000E046E0EC00FF0EB
:10775400D2EF3BF010A0B1EF3BF0B3EF3BF0B9EF49
:107764003BF0D89010300109106EBBEF3BF0D8907D
:10777400103201A0C0EF3BF0C2EF3BF0C3EF3BF08F
:10778400108E043404320332023201320F2A0E50B6
:107794000F5CD8A0D0EF3BF0D2EF3BF0ACEF3BF066
:1077A4000DBCD7EF3BF0D9EF3BF019EF3CF00F5095
:1077B400D8A4DFEF3BF0E1EF3BF0EBEF3BF0000E42
:1077C400016E000E026E000E036E000E046E3AEFA0
:1077D4003DF00550012606500222075003220850AE
:1077E400042204A0F8EF3BF0FAEF3BF0A6EF3CF0E4
:1077F40010A0FFEF3BF001EF3CF007EF3CF0D89016
:1078040010300109106E09EF3CF0D890103201A03D
:107814000EEF3CF010EF3CF011EF3CF0108E04340E
:1078240004320332023201320F2AA6EF3CF0055033
:10783400015C06500258075003580450800A096E30
:107844000850800A0958D8B02AEF3CF02CEF3CF0DD
:1078540057EF3CF00150055C096E025006580A6E61
:10786400035007580B6E045008580C6EFF0E092481
:10787400016EFF0E0A20026EFF0E0B20036EFF0E38
:107884000C20046E800E0D1A106C1050D8A44DEF0D
:107894003CF04FEF3CF05FEF3CF0010E0126000E90
:1078A4000222032204225FEF3CF00550015E0650E1
:1078B400025A0750035A0850045A01500210031088
:1078C4000410D8A468EF3CF06AEF3CF09FEF3CF062
:1078D4001050D8A470EF3CF072EF3CF09FEF3CF0F6
:1078E400000E016E000E026E000E036E000E046E9A
:1078F4003AEF3DF0D890013602360336043610AE26
:1079040086EF3CF088EF3CF089EF3CF0018010A05A
:107914008EEF3CF090EF3CF094EF3CF0D8801036C2
:1079240096EF3CF0D89010360F50D8B49CEF3CF052
:107934009EEF3CF09FEF3CF00F0603AEA4EF3CF04B
:10794400A6EF3CF07CEF3CF0000E0E6E10AEADEFF7
:107954003CF0AFEF3CF0C7EF3CF010C009F07F0EF5
:107964000916D8B4B8EF3CF0BAEF3CF0BEEF3CF0E7
:10797400010E0E6EC7EF3CF001A0C3EF3CF0C5EF63
:107984003CF0C7EF3CF0BAEF3CF00E50D8B4CDEF6A
:107994003CF0CFEF3CF0FAEF3CF0010E0126000E74
:1079A40002220322042204A0DAEF3CF0DCEF3CF0D4
:1079B400FAEF3CF001C009F002C00AF003C00BF07A
:1079C40004C00CF00C340C320B320A32093209C0F8
:1079D40001F00AC002F00BC003F00CC004F00F2841
:1079E400D8B4F7EF3CF0F9EF3CF0FAEF3CF00F2A93
:1079F4000F28D8B400EF3DF002EF3DF00AEF3DF060
:107A04000F50D8A408EF3DF00AEF3DF01CEF3DF015
:107A1400000E016E000E026E000E036E000E046E68
:107A24000F50D8A418EF3DF01AEF3DF01CEF3DF0D5
:107A3400000E0D6E0FA021EF3DF023EF3DF026EF79
:107A44003DF0038E27EF3DF0039ED8900F30046E77
:107A54000DAE2FEF3DF031EF3DF032EF3DF0048EEF
:107A640001C001F002C002F003C003F004C004F03E
:107A74001200010E476E040E446E540E436E040E43
:107A8400466E540E456EA4EC2AF00009D8B44DEFAE
:107A94003DF04FEF3DF054EF3DF00C0E0001636FED
:107AA400000E476E99EC2AF00009D8B45CEF3DF063
:107AB4005EEF3DF063EF3DF0050E0001636F000ED5
:107AC400476E34EC31F00009D8B46BEF3DF06DEF44
:107AD4003DF072EF3DF0090E0001636F000E476E3A
:107AE4004750D8B478EF3DF07AEF3DF0F5EF3FF032
:107AF400480E0E6E000E0F6E4A0E106E000E116EC2
:107B04005AEC2FF0485000016B5D49506C59D8B0C5
:107B14008EEF3DF090EF3DF025EF3EF0675171257B
:107B2400416E68517221426E4850415C495042583E
:107B3400D8B09FEF3DF0A1EF3DF0A7EF3DF06751C6
:107B44007125486E68517221496E000E506E800E88
:107B5400516E8A0E526E440E536E6751485C416EEC
:107B640068514958426E41C001F042C002F0036AB4
:107B7400046A000EEDEC33F001C04CF002C04DF08D
:107B840003C04EF004C04FF071C001F072C002F0A7
:107B9400036A046A000EEDEC33F001C013F002C076
:107BA40014F003C015F004C016F04CC00FF04DC023
:107BB40010F04EC011F04FC012F0F9EC36F00FC0C7
:107BC40028F010C029F011C02AF012C02BF0000ECA
:107BD4002C6E800E2D6E1D0E2E6E440E2F6EC6EC76
:107BE40038F028C04CF029C04DF02AC04EF02BC00C
:107BF4004FF050C001F051C002F052C003F053C026
:107C040004F04CC005F04DC006F04EC007F04FC064
:107C140008F0DBEC3AF001C050F002C051F003C0B0
:107C240052F004C053F050C001F051C002F052C0F1
:107C340003F053C004F0B1EC30F001C043F002C0D3
:107C440044F0C2EF3EF06951485C6A514958D8B0DB
:107C54002EEF3EF030EF3EF0C2EF3EF07BEC2AF028
:107C64000009D8A438EF3EF03AEF3EF0C2EF3EF000
:107C740000017351675D416E74516859426E415001
:107C8400485C42504958D8B04AEF3EF04CEF3EF0C1
:107C940052EF3EF07351675D486E74516859496EF6
:107CA400000E506E800E516E8A0E526E440E536E4C
:107CB4004850675D416E49506859426E41C001F0B9
:107CC40042C002F0036A046A000EEDEC33F001C016
:107CD4004CF002C04DF003C04EF004C04FF073C02E
:107CE40001F074C002F0036A046A000EEDEC33F094
:107CF40001C013F002C014F003C015F004C016F064
:107D04004CC00FF04DC010F04EC011F04FC012F037
:107D1400F9EC36F00FC028F010C029F011C02AF099
:107D240012C02BF0000E2C6E800E2D6E1D0E2E6ECA
:107D3400440E2F6EC6EC38F028C04CF029C04DF02C
:107D44002AC04EF02BC04FF050C011F051C012F0B9
:107D540052C013F053C014F04CC015F04DC016F0CF
:107D64004EC017F04FC018F031EC2CF011C050F099
:107D740012C051F013C052F014C053F015EF3EF08E
:107D84004A5000017B5D4B507C59D8B0CCEF3EF09B
:107D9400CEEF3EF063EF3FF077518125416E78518D
:107DA4008221426E4A50415C4B504258D8B0DDEFBC
:107DB4003EF0DFEF3EF0E5EF3EF0775181254A6E6D
:107DC400785182214B6E000E506E800E516E8A0ED9
:107DD400526E440E536E77514A5C416E78514B5843
:107DE400426E41C001F042C002F0036A046A000E10
:107DF400EDEC33F001C04CF002C04DF003C04EF086
:107E040004C04FF081C001F082C002F0036A046A2A
:107E1400000EEDEC33F001C013F002C014F003C007
:107E240015F004C016F04CC00FF04DC010F04EC059
:107E340011F04FC012F0F9EC36F00FC028F010C06A
:107E440029F011C02AF012C02BF0000E2C6E800E07
:107E54002D6E1D0E2E6E440E2F6EC6EC38F028C00B
:107E64004CF029C04DF02AC04EF02BC04FF050C04A
:107E740001F051C002F052C003F053C004F04CC0F2
:107E840005F04DC006F04EC007F04FC008F0DBEC23
:107E94003AF001C050F002C051F003C052F004C0E7
:107EA40053F050C001F051C002F052C003F053C06F
:107EB40004F0B1EC30F001C045F002C046F0F5EF3B
:107EC4003FF079514A5C7A514B58D8B06CEF3FF08F
:107ED4006EEF3FF0F5EF3FF08351775D416E8451D3
:107EE4007859426E41504A5C42504B58D8B07DEFAD
:107EF4003FF07FEF3FF085EF3FF08351775D4A6EAF
:107F0400845178594B6E000E506E800E516E8A0E5D
:107F1400526E440E536E4A50775D416E4B50785901
:107F2400426E41C001F042C002F0036A046A000ECE
:107F3400EDEC33F001C04CF002C04DF003C04EF044
:107F440004C04FF083C001F084C002F0036A046AE5
:107F5400000EEDEC33F001C013F002C014F003C0C6
:107F640015F004C016F04CC00FF04DC010F04EC018
:107F740011F04FC012F0F9EC36F00FC028F010C029
:107F840029F011C02AF012C02BF0000E2C6E800EC6
:107F94002D6E1D0E2E6E440E2F6EC6EC38F028C0CA
:107FA4004CF029C04DF02AC04EF02BC04FF050C009
:107FB40011F051C012F052C013F053C014F04CC071
:107FC40015F04DC016F04EC017F04FC018F031EC4C
:107FD4002CF011C050F012C051F013C052F014C074
:107FE40053F053EF3FF043C00DF044C00EF045C0D2
:0C7FF4000FF046C010F000EC30F012005E
:020000040020DA
:08000000FFFFFFFFFFFFFFFF00
:020000040030CA
:0E000000000C1E1EFF8180FF0FC00FE00F409E
:00000001FF
